{
  "contractName": "Governor",
  "abi": [
    {
      "inputs": [
        {
          "internalType": "address",
          "name": "_finderAddress",
          "type": "address"
        },
        {
          "internalType": "uint256",
          "name": "_startingId",
          "type": "uint256"
        },
        {
          "internalType": "address",
          "name": "_timerAddress",
          "type": "address"
        }
      ],
      "stateMutability": "nonpayable",
      "type": "constructor"
    },
    {
      "anonymous": false,
      "inputs": [
        {
          "indexed": true,
          "internalType": "uint256",
          "name": "roleId",
          "type": "uint256"
        },
        {
          "indexed": true,
          "internalType": "address",
          "name": "newMember",
          "type": "address"
        },
        {
          "indexed": true,
          "internalType": "address",
          "name": "manager",
          "type": "address"
        }
      ],
      "name": "AddedSharedMember",
      "type": "event"
    },
    {
      "anonymous": false,
      "inputs": [
        {
          "indexed": true,
          "internalType": "uint256",
          "name": "id",
          "type": "uint256"
        },
        {
          "components": [
            {
              "internalType": "address",
              "name": "to",
              "type": "address"
            },
            {
              "internalType": "uint256",
              "name": "value",
              "type": "uint256"
            },
            {
              "internalType": "bytes",
              "name": "data",
              "type": "bytes"
            }
          ],
          "indexed": false,
          "internalType": "struct Governor.Transaction[]",
          "name": "transactions",
          "type": "tuple[]"
        }
      ],
      "name": "NewProposal",
      "type": "event"
    },
    {
      "anonymous": false,
      "inputs": [
        {
          "indexed": true,
          "internalType": "uint256",
          "name": "id",
          "type": "uint256"
        },
        {
          "indexed": false,
          "internalType": "uint256",
          "name": "transactionIndex",
          "type": "uint256"
        }
      ],
      "name": "ProposalExecuted",
      "type": "event"
    },
    {
      "anonymous": false,
      "inputs": [
        {
          "indexed": true,
          "internalType": "uint256",
          "name": "roleId",
          "type": "uint256"
        },
        {
          "indexed": true,
          "internalType": "address",
          "name": "oldMember",
          "type": "address"
        },
        {
          "indexed": true,
          "internalType": "address",
          "name": "manager",
          "type": "address"
        }
      ],
      "name": "RemovedSharedMember",
      "type": "event"
    },
    {
      "anonymous": false,
      "inputs": [
        {
          "indexed": true,
          "internalType": "uint256",
          "name": "roleId",
          "type": "uint256"
        },
        {
          "indexed": true,
          "internalType": "address",
          "name": "newMember",
          "type": "address"
        },
        {
          "indexed": true,
          "internalType": "address",
          "name": "manager",
          "type": "address"
        }
      ],
      "name": "ResetExclusiveMember",
      "type": "event"
    },
    {
      "inputs": [
        {
          "internalType": "uint256",
          "name": "roleId",
          "type": "uint256"
        },
        {
          "internalType": "address",
          "name": "newMember",
          "type": "address"
        }
      ],
      "name": "addMember",
      "outputs": [],
      "stateMutability": "nonpayable",
      "type": "function"
    },
    {
      "inputs": [],
      "name": "getCurrentTime",
      "outputs": [
        {
          "internalType": "uint256",
          "name": "",
          "type": "uint256"
        }
      ],
      "stateMutability": "view",
      "type": "function"
    },
    {
      "inputs": [
        {
          "internalType": "uint256",
          "name": "roleId",
          "type": "uint256"
        }
      ],
      "name": "getMember",
      "outputs": [
        {
          "internalType": "address",
          "name": "",
          "type": "address"
        }
      ],
      "stateMutability": "view",
      "type": "function"
    },
    {
      "inputs": [
        {
          "internalType": "uint256",
          "name": "roleId",
          "type": "uint256"
        },
        {
          "internalType": "address",
          "name": "memberToCheck",
          "type": "address"
        }
      ],
      "name": "holdsRole",
      "outputs": [
        {
          "internalType": "bool",
          "name": "",
          "type": "bool"
        }
      ],
      "stateMutability": "view",
      "type": "function"
    },
    {
      "inputs": [
        {
          "internalType": "uint256",
          "name": "",
          "type": "uint256"
        }
      ],
      "name": "proposals",
      "outputs": [
        {
          "internalType": "uint256",
          "name": "requestTime",
          "type": "uint256"
        }
      ],
      "stateMutability": "view",
      "type": "function"
    },
    {
      "inputs": [
        {
          "internalType": "uint256",
          "name": "roleId",
          "type": "uint256"
        },
        {
          "internalType": "address",
          "name": "memberToRemove",
          "type": "address"
        }
      ],
      "name": "removeMember",
      "outputs": [],
      "stateMutability": "nonpayable",
      "type": "function"
    },
    {
      "inputs": [
        {
          "internalType": "uint256",
          "name": "roleId",
          "type": "uint256"
        }
      ],
      "name": "renounceMembership",
      "outputs": [],
      "stateMutability": "nonpayable",
      "type": "function"
    },
    {
      "inputs": [
        {
          "internalType": "uint256",
          "name": "roleId",
          "type": "uint256"
        },
        {
          "internalType": "address",
          "name": "newMember",
          "type": "address"
        }
      ],
      "name": "resetMember",
      "outputs": [],
      "stateMutability": "nonpayable",
      "type": "function"
    },
    {
      "inputs": [
        {
          "internalType": "uint256",
          "name": "time",
          "type": "uint256"
        }
      ],
      "name": "setCurrentTime",
      "outputs": [],
      "stateMutability": "nonpayable",
      "type": "function"
    },
    {
      "inputs": [],
      "name": "timerAddress",
      "outputs": [
        {
          "internalType": "address",
          "name": "",
          "type": "address"
        }
      ],
      "stateMutability": "view",
      "type": "function"
    },
    {
      "inputs": [
        {
          "components": [
            {
              "internalType": "address",
              "name": "to",
              "type": "address"
            },
            {
              "internalType": "uint256",
              "name": "value",
              "type": "uint256"
            },
            {
              "internalType": "bytes",
              "name": "data",
              "type": "bytes"
            }
          ],
          "internalType": "struct Governor.Transaction[]",
          "name": "transactions",
          "type": "tuple[]"
        }
      ],
      "name": "propose",
      "outputs": [],
      "stateMutability": "nonpayable",
      "type": "function"
    },
    {
      "inputs": [
        {
          "internalType": "uint256",
          "name": "id",
          "type": "uint256"
        },
        {
          "internalType": "uint256",
          "name": "transactionIndex",
          "type": "uint256"
        }
      ],
      "name": "executeProposal",
      "outputs": [],
      "stateMutability": "payable",
      "type": "function"
    },
    {
      "inputs": [],
      "name": "numProposals",
      "outputs": [
        {
          "internalType": "uint256",
          "name": "",
          "type": "uint256"
        }
      ],
      "stateMutability": "view",
      "type": "function"
    },
    {
      "inputs": [
        {
          "internalType": "uint256",
          "name": "id",
          "type": "uint256"
        }
      ],
      "name": "getProposal",
      "outputs": [
        {
          "components": [
            {
              "components": [
                {
                  "internalType": "address",
                  "name": "to",
                  "type": "address"
                },
                {
                  "internalType": "uint256",
                  "name": "value",
                  "type": "uint256"
                },
                {
                  "internalType": "bytes",
                  "name": "data",
                  "type": "bytes"
                }
              ],
              "internalType": "struct Governor.Transaction[]",
              "name": "transactions",
              "type": "tuple[]"
            },
            {
              "internalType": "uint256",
              "name": "requestTime",
              "type": "uint256"
            }
          ],
          "internalType": "struct Governor.Proposal",
          "name": "",
          "type": "tuple"
        }
      ],
      "stateMutability": "view",
      "type": "function"
    }
  ],
  "bytecode": "0x60806040523480156200001157600080fd5b5060405162001f2638038062001f26833981016040819052620000349162000211565b600180546001600160a01b038084166001600160a01b03199283161790925560028054928616929091169190911790556200007d60005b6000336001600160e01b03620000ca16565b6200008960016200006b565b670de0b6b3a764000080831115620000be5760405162461bcd60e51b8152600401620000b59062000253565b60405180910390fd5b50506003555062000371565b826000808281526020819052604090206001015460ff166002811115620000ed57fe5b146200010d5760405162461bcd60e51b8152600401620000b590620002f7565b60008481526020819052604090206001808201805460ff1916828002179055508381556200014b600282018462000194602090811b62001b6117901c565b60008481526020819052604081206001015460ff1660028111156200016c57fe5b14156200018d5760405162461bcd60e51b8152600401620000b5906200029a565b5050505050565b620001a982826001600160e01b03620001ad16565b5050565b6001600160a01b038116620001d65760405162461bcd60e51b8152600401620000b5906200032e565b81546001600160a01b0319166001600160a01b0391909116179055565b80516001600160a01b03811681146200020b57600080fd5b92915050565b60008060006060848603121562000226578283fd5b620002328585620001f3565b9250602084015191506200024a8560408601620001f3565b90509250925092565b60208082526027908201527f43616e6e6f7420736574207374617274696e674964206c6172676572207468616040820152660dc406260bc62760cb1b606082015260800190565b6020808252603c908201527f417474656d7074656420746f2075736520616e20696e76616c696420726f6c6560408201527f20746f206d616e61676520616e206578636c757369766520726f6c6500000000606082015260800190565b6020808252601e908201527f43616e6e6f74207573652061207072652d6578697374696e6720726f6c650000604082015260600190565b60208082526023908201527f43616e6e6f742073657420616e206578636c757369766520726f6c6520746f2060408201526203078360ec1b606082015260800190565b611ba580620003816000396000f3fe6080604052600436106100dd5760003560e01c806374d0a6761161007f578063ab3545e511610059578063ab3545e514610226578063c62fdef714610246578063c7f758a814610266578063d97c05be14610293576100dd565b806374d0a676146101b95780637cdc1cb9146101d9578063aaa14ca314610206576100dd565b806322f8e566116100bb57806322f8e5661461014f57806329cb924d1461016f578063400e3949146101845780636be7658b14610199576100dd565b8063013cf08b146100e25780631ab76712146101185780631c39c38d1461012d575b600080fd5b3480156100ee57600080fd5b506101026100fd366004611576565b6102b3565b60405161010f91906116ce565b60405180910390f35b61012b6101263660046115bd565b6102d9565b005b34801561013957600080fd5b506101426105f6565b60405161010f9190611629565b34801561015b57600080fd5b5061012b61016a366004611576565b610605565b34801561017b57600080fd5b5061010261067f565b34801561019057600080fd5b50610102610726565b3480156101a557600080fd5b5061012b6101b436600461158e565b61072c565b3480156101c557600080fd5b5061012b6101d436600461158e565b610802565b3480156101e557600080fd5b506101f96101f436600461158e565b6108d8565b60405161010f91906116c3565b34801561021257600080fd5b5061012b610221366004611576565b610967565b34801561023257600080fd5b50610142610241366004611576565b610a23565b34801561025257600080fd5b5061012b610261366004611437565b610a86565b34801561027257600080fd5b50610286610281366004611576565b610db4565b60405161010f9190611a59565b34801561029f57600080fd5b5061012b6102ae36600461158e565b610f00565b600381815481106102c057fe5b6000918252602090912060016002909202010154905081565b6000600383815481106102e857fe5b906000526020600020906002020190506000610302610fd6565b6001600160a01b031663c9280f0661031986611065565b84600101546040518363ffffffff1660e01b815260040161033b9291906116d7565b60206040518083038186803b15801561035357600080fd5b505afa158015610367573d6000803e3d6000fd5b505050506040513d601f19601f8201168201806040525081019061038b919061155e565b90506103956112f8565b8260000184815481106103a457fe5b60009182526020918290206040805160608101825260039390930290910180546001600160a01b03168352600180820154848601526002808301805485516101009482161594909402600019011691909104601f81018790048702830187018552808352949592949386019391929091908301828280156104665780601f1061043b57610100808354040283529160200191610466565b820191906000526020600020905b81548152906001019060200180831161044957829003601f168201915b505050505081525050905083600014806104b5575060008361048f86600163ffffffff61108816565b8154811061049957fe5b60009182526020909120600390910201546001600160a01b0316145b6104da5760405162461bcd60e51b81526004016104d190611939565b60405180910390fd5b80516001600160a01b03166105015760405162461bcd60e51b81526004016104d19061172f565b8161051e5760405162461bcd60e51b81526004016104d190611a22565b806020015134146105415760405162461bcd60e51b81526004016104d19061179d565b82600001848154811061055057fe5b60009182526020822060039091020180546001600160a01b031916815560018101829055906105826002830182611322565b505061059b8160000151826020015183604001516110ca565b6105b75760405162461bcd60e51b81526004016104d1906119eb565b847ff758fc91e01b00ea6b4a6138756f7f28e021f9bf21db6dbf8c36c88eb737257a856040516105e791906116ce565b60405180910390a25050505050565b6001546001600160a01b031681565b6001546001600160a01b031661061a57600080fd5b60015460405163117c72b360e11b81526001600160a01b03909116906322f8e5669061064a9084906004016116ce565b600060405180830381600087803b15801561066457600080fd5b505af1158015610678573d6000803e3d6000fd5b5050505050565b6001546000906001600160a01b03161561072057600160009054906101000a90046001600160a01b03166001600160a01b03166329cb924d6040518163ffffffff1660e01b815260040160206040518083038186803b1580156106e157600080fd5b505afa1580156106f5573d6000803e3d6000fd5b505050506040513d601f19601f82011682018060405250810190610719919061155e565b9050610723565b50425b90565b60035490565b81600260008281526020819052604090206001015460ff16600281111561074f57fe5b1461076c5760405162461bcd60e51b81526004016104d190611868565b600083815260208190526040902054839061078790336108d8565b6107a35760405162461bcd60e51b81526004016104d190611970565b60008481526020819052604090206107c4906003018463ffffffff6110e716565b60405133906001600160a01b0385169086907feb3e33034c392e69263b04ec0fa376dc12784a41b6676c7f31b936cbc0fbb5af90600090a450505050565b81600260008281526020819052604090206001015460ff16600281111561082557fe5b146108425760405162461bcd60e51b81526004016104d190611868565b600083815260208190526040902054839061085d90336108d8565b6108795760405162461bcd60e51b81526004016104d190611970565b600084815260208190526040902061089a906003018463ffffffff61110916565b60405133906001600160a01b0385169086907f63502af7324ff6db91ab38f8236a648727d9385ea6c782073dd4882d8a61a48f90600090a450505050565b600082815260208190526040812060018082015460ff1660028111156108fa57fe5b141561091b57610913600282018463ffffffff61115416565b915050610961565b6002600182015460ff16600281111561093057fe5b141561094957610913600382018463ffffffff61116716565b60405162461bcd60e51b81526004016104d1906119b4565b92915050565b80600260008281526020819052604090206001015460ff16600281111561098a57fe5b146109a75760405162461bcd60e51b81526004016104d190611868565b816109b281336108d8565b6109ce5760405162461bcd60e51b81526004016104d1906118b4565b60008381526020819052604090206109ef906003013363ffffffff6110e716565b6040513390819085907feb3e33034c392e69263b04ec0fa376dc12784a41b6676c7f31b936cbc0fbb5af90600090a4505050565b600081600160008281526020819052604090206001015460ff166002811115610a4857fe5b14610a655760405162461bcd60e51b81526004016104d1906117d4565b6000838152602081905260409020610a7f90600201611186565b9392505050565b6001610a9281336108d8565b610aae5760405162461bcd60e51b81526004016104d1906118b4565b6003546000610abb61067f565b60038054600101808255600082815292935084908110610ad757fe5b600091825260208220600160029092020190810184905591505b8551811015610c2f5760006001600160a01b0316868281518110610b1157fe5b6020026020010151600001516001600160a01b03161415610b445760405162461bcd60e51b81526004016104d190611766565b6000868281518110610b5257fe5b602002602001015160400151511115610baa57610b8e868281518110610b7457fe5b6020026020010151600001516001600160a01b0316611193565b610baa5760405162461bcd60e51b81526004016104d190611831565b81600001868281518110610bba57fe5b602090810291909101810151825460018082018555600094855293839020825160039092020180546001600160a01b0319166001600160a01b03909216919091178155818301519381019390935560408101518051919392610c2492600285019290910190611369565b505050600101610af1565b506000610c3b84611065565b90506000610c47610fd6565b90506000610c536111cf565b6040516310a7e20160e01b81529091506001600160a01b038216906310a7e20190610c829086906004016116ce565b600060405180830381600087803b158015610c9c57600080fd5b505af1158015610cb0573d6000803e3d6000fd5b50506040516368ad8ae360e01b81526001600160a01b03851692506368ad8ae39150610ce290869089906004016116d7565b600060405180830381600087803b158015610cfc57600080fd5b505af1158015610d10573d6000803e3d6000fd5b5050604051638e0d3ca760e01b81526001600160a01b0384169250638e0d3ca79150610d409086906004016116ce565b600060405180830381600087803b158015610d5a57600080fd5b505af1158015610d6e573d6000803e3d6000fd5b50505050857f082d2a29e61e3d0508e5617570bed4c7c58ae73d4719b31052d8638812bc4c0c89604051610da2919061163d565b60405180910390a25050505050505050565b610dbc6113e7565b60038281548110610dc957fe5b906000526020600020906002020160405180604001604052908160008201805480602002602001604051908101604052809291908181526020016000905b82821015610ee7576000848152602090819020604080516060810182526003860290920180546001600160a01b03168352600180820154848601526002808301805485516101009482161594909402600019011691909104601f8101879004870283018701855280835294959294938601939192909190830182828015610ecf5780601f10610ea457610100808354040283529160200191610ecf565b820191906000526020600020905b815481529060010190602001808311610eb257829003601f168201915b50505050508152505081526020019060010190610e07565b5050505081526020016001820154815250509050919050565b81600160008281526020819052604090206001015460ff166002811115610f2357fe5b14610f405760405162461bcd60e51b81526004016104d1906117d4565b6000838152602081905260409020548390610f5b90336108d8565b610f775760405162461bcd60e51b81526004016104d190611970565b6000848152602081905260409020610f98906002018463ffffffff61122016565b60405133906001600160a01b0385169086907f3b855c56b409b671c7112789d022675eb639d0bcb8896f1b6197c132f799e74690600090a450505050565b6002546040516302abf57960e61b81526000916001600160a01b03169063aafd5e409061101090654f7261636c6560d01b906004016116ce565b60206040518083038186803b15801561102857600080fd5b505afa15801561103c573d6000803e3d6000fd5b505050506040513d601f19601f82011682018060405250810190611060919061141b565b905090565b60008061107183611263565b9050610a7f8165020b236b4b7160d51b60066112c1565b6000610a7f83836040518060400160405280601e81526020017f536166654d6174683a207375627472616374696f6e206f766572666c6f7700008152506112cc565b6000806020830183516000808284898b5af1979650505050505050565b6001600160a01b0316600090815260209190915260409020805460ff19169055565b6001600160a01b03811661112f5760405162461bcd60e51b81526004016104d1906116f8565b6001600160a01b0316600090815260209190915260409020805460ff19166001179055565b90546001600160a01b0391821691161490565b6001600160a01b03166000908152602091909152604090205460ff1690565b546001600160a01b031690565b6000813f7fc5d2460186f7233c927e7db2dcc703c0e500b653ca82273b7bfad8045d85a4708181148015906111c757508115155b949350505050565b6002546040516302abf57960e61b81526000916001600160a01b03169063aafd5e4090611010907f4964656e74696669657257686974656c69737400000000000000000000000000906004016116ce565b6001600160a01b0381166112465760405162461bcd60e51b81526004016104d1906118f6565b81546001600160a01b0319166001600160a01b0391909116179055565b600080826112765750600360fc1b610961565b6008600a60305b85156112b85792821c92600082878161129257fe5b06828101601f860281901b96909617959091508388816112ae57fe5b049750505061127d565b50505092915050565b6008029190911c1790565b600081848411156112f05760405162461bcd60e51b81526004016104d191906116e5565b505050900390565b604051806060016040528060006001600160a01b0316815260200160008152602001606081525090565b50805460018160011615610100020316600290046000825580601f106113485750611366565b601f0160209004906000526020600020908101906113669190611401565b50565b828054600181600116156101000203166002900490600052602060002090601f016020900481019282601f106113aa57805160ff19168380011785556113d7565b828001600101855582156113d7579182015b828111156113d75782518255916020019190600101906113bc565b506113e3929150611401565b5090565b604051806040016040528060608152602001600081525090565b61072391905b808211156113e35760008155600101611407565b60006020828403121561142c578081fd5b8151610a7f81611b4c565b60006020808385031215611449578182fd5b823567ffffffffffffffff80821115611460578384fd5b81850186601f820112611471578485fd5b8035925081831115611481578485fd5b61148e8485850201611af5565b83815284810190828601875b8681101561154f5781358501606080601f19838f030112156114ba578a8bfd5b6114c381611af5565b8a8301356114d081611b4c565b81526040838101358c830152828401358a8111156114ec578d8efd5b84019250603f83018f136114fe578c8dfd5b8b830135935061151561151085611b1c565b611af5565b8481528f82868601011115611528578d8efd5b611537858e8301848701611b40565b9082015286525050928701929087019060010161149a565b50909998505050505050505050565b60006020828403121561156f578081fd5b5051919050565b600060208284031215611587578081fd5b5035919050565b600080604083850312156115a0578081fd5b8235915060208301356115b281611b4c565b809150509250929050565b600080604083850312156115cf578182fd5b50508035926020909101359150565b60008151808452815b81811015611603576020818501810151868301820152016115e7565b818111156116145782602083870101525b50601f01601f19169290920160200192915050565b6001600160a01b0391909116815260200190565b60208082528251828201819052600091906040908185019080840286018301878501865b838110156116b557603f19898403018552815160606001600160a01b03825116855288820151898601528782015181898701526116a0828701826115de565b978a0197955050509187019150600101611661565b509098975050505050505050565b901515815260200190565b90815260200190565b918252602082015260400190565b600060208252610a7f60208301846115de565b6020808252601f908201527f43616e6e6f74206164642030783020746f20612073686172656420726f6c6500604082015260600190565b60208082526013908201527f547820616c726561647920657865637574656400000000000000000000000000604082015260600190565b6020808252601e908201527f5468652060746f6020616464726573732063616e6e6f74206265203078300000604082015260600190565b6020808252601d908201527f4d7573742073656e6420657861637420616d6f756e74206f6620455448000000604082015260600190565b6020808252602f908201527f4d7573742062652063616c6c6564206f6e20616e20696e697469616c697a656460408201527f204578636c757369766520726f6c650000000000000000000000000000000000606082015260800190565b6020808252601d908201527f454f412063616e27742061636365707420747820776974682064617461000000604082015260600190565b6020808252602c908201527f4d7573742062652063616c6c6564206f6e20616e20696e697469616c697a656460408201526b2053686172656420726f6c6560a01b606082015260800190565b60208082526022908201527f53656e64657220646f6573206e6f7420686f6c6420726571756972656420726f6040820152616c6560f01b606082015260800190565b60208082526023908201527f43616e6e6f742073657420616e206578636c757369766520726f6c6520746f2060408201526203078360ec1b606082015260800190565b6020808252601c908201527f50726576696f7573207478206e6f742079657420657865637574656400000000604082015260600190565b60208082526024908201527f43616e206f6e6c792062652063616c6c6564206279206120726f6c65206d616e60408201526330b3b2b960e11b606082015260800190565b6020808252600e908201527f496e76616c696420726f6c654964000000000000000000000000000000000000604082015260600190565b60208082526013908201527f547820657865637574696f6e206661696c656400000000000000000000000000604082015260600190565b60208082526015908201527f50726f706f73616c207761732072656a65637465640000000000000000000000604082015260600190565b60006020808352606080840185516040808588015282825180855260808901915060808782028a010194508684018894505b81851015611ade57607f198a870301835280516001600160a01b0381511687528881015189880152848101518886890152611ac8898901826115de565b9750505060019490940193918701918701611a8b565b505050939096015194909201939093529392505050565b60405181810167ffffffffffffffff81118282101715611b1457600080fd5b604052919050565b600067ffffffffffffffff821115611b32578081fd5b50601f01601f191660200190565b82818337506000910152565b6001600160a01b038116811461136657600080fd5b611b6b8282611220565b505056fea26469706673582212206f0e4e50bcaa5eb2b8d62cabcbc4ad480c8fb1aaf4456493312238baccc51e9064736f6c63430006060033",
  "immutableReferences": {},
  "source": "pragma solidity ^0.6.0;\npragma experimental ABIEncoderV2;\n\nimport \"../../common/implementation/MultiRole.sol\";\nimport \"../../common/implementation/FixedPoint.sol\";\nimport \"../../common/implementation/Testable.sol\";\nimport \"../interfaces/FinderInterface.sol\";\nimport \"../interfaces/IdentifierWhitelistInterface.sol\";\nimport \"../interfaces/OracleInterface.sol\";\nimport \"./Constants.sol\";\n\nimport \"@openzeppelin/contracts/math/SafeMath.sol\";\nimport \"@openzeppelin/contracts/utils/Address.sol\";\n\n\n/**\n * @title Takes proposals for certain governance actions and allows UMA token holders to vote on them.\n */\ncontract Governor is MultiRole, Testable {\n    using SafeMath for uint;\n    using Address for address;\n\n    /****************************************\n     *     INTERNAL VARIABLES AND STORAGE   *\n     ****************************************/\n\n    enum Roles {\n        Owner, // Can set the proposer.\n        Proposer // Address that can make proposals.\n    }\n\n    struct Transaction {\n        address to;\n        uint256 value;\n        bytes data;\n    }\n\n    struct Proposal {\n        Transaction[] transactions;\n        uint256 requestTime;\n    }\n\n    FinderInterface private finder;\n    Proposal[] public proposals;\n\n    /****************************************\n     *                EVENTS                *\n     ****************************************/\n\n    // Emitted when a new proposal is created.\n    event NewProposal(uint256 indexed id, Transaction[] transactions);\n\n    // Emitted when an existing proposal is executed.\n    event ProposalExecuted(uint256 indexed id, uint256 transactionIndex);\n\n    /**\n     * @notice Construct the Governor contract.\n     * @param _finderAddress keeps track of all contracts within the system based on their interfaceName.\n     * @param _startingId the initial proposal id that the contract will begin incrementing from.\n     * @param _timerAddress Contract that stores the current time in a testing environment.\n     * Must be set to 0x0 for production environments that use live time.\n     */\n    constructor(address _finderAddress, uint _startingId, address _timerAddress) public Testable(_timerAddress) {\n        finder = FinderInterface(_finderAddress);\n        _createExclusiveRole(uint(Roles.Owner), uint(Roles.Owner), msg.sender);\n        _createExclusiveRole(uint(Roles.Proposer), uint(Roles.Owner), msg.sender);\n\n        // Ensure the startingId is not set unreasonably high to avoid it being set such that new proposals overwrite\n        // other storage slots in the contract.\n        uint maxStartingId = 10**18;\n        require(_startingId <= maxStartingId, \"Cannot set startingId larger than 10^18\");\n\n        // This just sets the initial length of the array to the startingId since modifying length directly has been\n        // disallowed in solidity 0.6.\n        assembly {\n            sstore(proposals_slot, _startingId)\n        }\n    }\n\n    /****************************************\n     *          PROPOSAL ACTIONS            *\n     ****************************************/\n\n    /**\n     * @notice Proposes a new governance action. Can only be called by the holder of the Proposer role.\n     * @param transactions list of transactions that are being proposed.\n     * @dev You can create the data portion of each transaction by doing the following:\n     * ```\n     * const truffleContractInstance = await TruffleContract.deployed()\n     * const data = truffleContractInstance.methods.methodToCall(arg1, arg2).encodeABI()\n     * ```\n     * Note: this method must be public because of a solidity limitation that\n     * disallows structs arrays to be passed to external functions.\n     */\n    function propose(Transaction[] memory transactions) public onlyRoleHolder(uint(Roles.Proposer)) {\n        uint256 id = proposals.length;\n        uint256 time = getCurrentTime();\n\n        // Note: doing all of this array manipulation manually is necessary because directly setting an array of\n        // structs in storage to an an array of structs in memory is currently not implemented in solidity :/.\n\n        // Add a zero-initialized element to the proposals array.\n        proposals.push();\n\n        // Initialize the new proposal.\n        Proposal storage proposal = proposals[id];\n        proposal.requestTime = time;\n\n        // Initialize the transaction array.\n        for (uint256 i = 0; i < transactions.length; i++) {\n            require(transactions[i].to != address(0), \"The `to` address cannot be 0x0\");\n            // If the transaction has any data with it the recipient must be a contract, not an EOA.\n            if (transactions[i].data.length > 0) {\n                require(transactions[i].to.isContract(), \"EOA can't accept tx with data\");\n            }\n            proposal.transactions.push(transactions[i]);\n        }\n\n        bytes32 identifier = _constructIdentifier(id);\n\n        // Request a vote on this proposal in the DVM.\n        OracleInterface oracle = _getOracle();\n        IdentifierWhitelistInterface supportedIdentifiers = _getIdentifierWhitelist();\n        supportedIdentifiers.addSupportedIdentifier(identifier);\n\n        oracle.requestPrice(identifier, time);\n        supportedIdentifiers.removeSupportedIdentifier(identifier);\n\n        emit NewProposal(id, transactions);\n    }\n\n    /**\n     * @notice Executes a proposed governance action that has been approved by voters.\n     * @dev This can be called by any address. Caller is expected to send enough ETH to execute payable transactions.\n     * @param id unique id for the executed proposal.\n     * @param transactionIndex unique transaction index for the executed proposal.\n     */\n    function executeProposal(uint256 id, uint256 transactionIndex) external payable {\n        Proposal storage proposal = proposals[id];\n        int256 price = _getOracle().getPrice(_constructIdentifier(id), proposal.requestTime);\n\n        Transaction memory transaction = proposal.transactions[transactionIndex];\n\n        require(\n            transactionIndex == 0 || proposal.transactions[transactionIndex.sub(1)].to == address(0),\n            \"Previous tx not yet executed\"\n        );\n        require(transaction.to != address(0), \"Tx already executed\");\n        require(price != 0, \"Proposal was rejected\");\n        require(msg.value == transaction.value, \"Must send exact amount of ETH\");\n\n        // Delete the transaction before execution to avoid any potential re-entrancy issues.\n        delete proposal.transactions[transactionIndex];\n\n        require(_executeCall(transaction.to, transaction.value, transaction.data), \"Tx execution failed\");\n\n        emit ProposalExecuted(id, transactionIndex);\n    }\n\n    /****************************************\n     *       GOVERNOR STATE GETTERS         *\n     ****************************************/\n\n    /**\n     * @notice Gets the total number of proposals (includes executed and non-executed).\n     * @return uint256 representing the current number of proposals.\n     */\n    function numProposals() external view returns (uint) {\n        return proposals.length;\n    }\n\n    /**\n     * @notice Gets the proposal data for a particular id.\n     * @dev after a proposal is executed, its data will be zeroed out, except for the request time.\n     * @param id uniquely identify the identity of the proposal.\n     * @return proposal struct containing transactions[] and requestTime.\n     */\n    function getProposal(uint256 id) external view returns (Proposal memory) {\n        return proposals[id];\n    }\n\n    /****************************************\n     *      PRIVATE GETTERS AND FUNCTIONS   *\n     ****************************************/\n\n    function _executeCall(address to, uint256 value, bytes memory data) private returns (bool) {\n        // Mostly copied from:\n        // solhint-disable-next-line max-line-length\n        // https://github.com/gnosis/safe-contracts/blob/59cfdaebcd8b87a0a32f87b50fead092c10d3a05/contracts/base/Executor.sol#L23-L31\n        // solhint-disable-next-line no-inline-assembly\n\n        bool success;\n        assembly {\n            let inputData := add(data, 0x20)\n            let inputDataSize := mload(data)\n            success := call(gas(), to, value, inputData, inputDataSize, 0, 0)\n        }\n        return success;\n    }\n\n    function _getOracle() private view returns (OracleInterface) {\n        return OracleInterface(finder.getImplementationAddress(OracleInterfaces.Oracle));\n    }\n\n    function _getIdentifierWhitelist() private view returns (IdentifierWhitelistInterface supportedIdentifiers) {\n        return IdentifierWhitelistInterface(finder.getImplementationAddress(OracleInterfaces.IdentifierWhitelist));\n    }\n\n    // Returns a UTF-8 identifier representing a particular admin proposal.\n    // The identifier is of the form \"Admin n\", where n is the proposal id provided.\n    function _constructIdentifier(uint256 id) internal pure returns (bytes32) {\n        bytes32 bytesId = _uintToUtf8(id);\n        return _addPrefix(bytesId, \"Admin \", 6);\n    }\n\n    // This method converts the integer `v` into a base-10, UTF-8 representation stored in a `bytes32` type.\n    // If the input cannot be represented by 32 base-10 digits, it returns only the highest 32 digits.\n    // This method is based off of this code: https://ethereum.stackexchange.com/a/6613/47801.\n    function _uintToUtf8(uint256 v) internal pure returns (bytes32) {\n        bytes32 ret;\n        if (v == 0) {\n            // Handle 0 case explicitly.\n            ret = \"0\";\n        } else {\n            // Constants.\n            uint256 bitsPerByte = 8;\n            uint256 base = 10; // Note: the output should be base-10. The below implementation will not work for bases > 10.\n            uint256 utf8NumberOffset = 48;\n            while (v > 0) {\n                // Downshift the entire bytes32 to allow the new digit to be added at the \"front\" of the bytes32, which\n                // translates to the beginning of the UTF-8 representation.\n                ret = ret >> bitsPerByte;\n\n                // Separate the last digit that remains in v by modding by the base of desired output representation.\n                uint256 leastSignificantDigit = v % base;\n\n                // Digits 0-9 are represented by 48-57 in UTF-8, so an offset must be added to create the character.\n                bytes32 utf8Digit = bytes32(leastSignificantDigit + utf8NumberOffset);\n\n                // The top bit of ret has already been cleared to make room for the new digit.\n                // Upshift by 31 bytes to put it in position, and OR it with ret to leave the other characters untouched.\n                ret |= utf8Digit << (31 * bitsPerByte);\n\n                // Divide v by the base to remove the digit that was just added.\n                v /= base;\n            }\n        }\n        return ret;\n    }\n\n    // This method takes two UTF-8 strings represented as bytes32 and outputs one as a prefixed by the other.\n    // `input` is the UTF-8 that should have the prefix prepended.\n    // `prefix` is the UTF-8 that should be prepended onto input.\n    // `prefixLength` is number of UTF-8 characters represented by `prefix`.\n    // Notes:\n    // 1. If the resulting UTF-8 is larger than 32 characters, then only the first 32 characters will be represented\n    //    by the bytes32 output.\n    // 2. If `prefix` has more characters than `prefixLength`, the function will produce an invalid result.\n    function _addPrefix(bytes32 input, bytes32 prefix, uint256 prefixLength) internal pure returns (bytes32) {\n        // Downshift `input` to open space at the \"front\" of the bytes32\n        bytes32 shiftedInput = input >> (prefixLength * 8);\n        return shiftedInput | prefix;\n    }\n}\n",
  "sourcePath": "/Users/ptare/protocol/core/contracts/oracle/implementation/Governor.sol",
  "compiler": {
    "name": "solc",
    "version": "0.6.6+commit.6c089d02.Emscripten.clang"
  },
  "schemaVersion": "3.1.0",
  "updatedAt": "2020-04-24T16:50:15.252Z",
  "devdoc": {
    "methods": {
      "addMember(uint256,address)": {
        "details": "Reverts if `roleId` does not represent an initialized, SharedRole or if the caller is not a member of the managing role for `roleId`.",
        "params": {
          "newMember": "the new SharedRole member.",
          "roleId": "the SharedRole membership to modify."
        }
      },
      "constructor": {
        "params": {
          "_finderAddress": "keeps track of all contracts within the system based on their interfaceName.",
          "_startingId": "the initial proposal id that the contract will begin incrementing from.",
          "_timerAddress": "Contract that stores the current time in a testing environment. Must be set to 0x0 for production environments that use live time."
        }
      },
      "executeProposal(uint256,uint256)": {
        "details": "This can be called by any address. Caller is expected to send enough ETH to execute payable transactions.",
        "params": {
          "id": "unique id for the executed proposal.",
          "transactionIndex": "unique transaction index for the executed proposal."
        }
      },
      "getMember(uint256)": {
        "details": "Reverts if `roleId` does not represent an initialized, exclusive role.",
        "params": {
          "roleId": "the ExclusiveRole membership to check."
        },
        "returns": {
          "_0": "the address of the current ExclusiveRole member."
        }
      },
      "getProposal(uint256)": {
        "details": "after a proposal is executed, its data will be zeroed out, except for the request time.",
        "params": {
          "id": "uniquely identify the identity of the proposal."
        },
        "returns": {
          "_0": "proposal struct containing transactions[] and requestTime."
        }
      },
      "holdsRole(uint256,address)": {
        "details": "Reverts if roleId does not correspond to an initialized role.",
        "params": {
          "memberToCheck": "the address to check.",
          "roleId": "the Role to check."
        },
        "returns": {
          "_0": "True if `memberToCheck` is a member of `roleId`."
        }
      },
      "propose((address,uint256,bytes)[])": {
        "details": "You can create the data portion of each transaction by doing the following: ``` const truffleContractInstance = await TruffleContract.deployed() const data = truffleContractInstance.methods.methodToCall(arg1, arg2).encodeABI() ``` Note: this method must be public because of a solidity limitation that disallows structs arrays to be passed to external functions.",
        "params": {
          "transactions": "list of transactions that are being proposed."
        }
      },
      "removeMember(uint256,address)": {
        "details": "Reverts if `roleId` does not represent an initialized, SharedRole or if the caller is not a member of the managing role for `roleId`.",
        "params": {
          "memberToRemove": "the current SharedRole member to remove.",
          "roleId": "the SharedRole membership to modify."
        }
      },
      "renounceMembership(uint256)": {
        "details": "Reverts if the caller is not a member of the role for `roleId` or if `roleId` is not an initialized, SharedRole.",
        "params": {
          "roleId": "the SharedRole membership to modify."
        }
      },
      "resetMember(uint256,address)": {
        "details": "Reverts if the caller is not a member of the managing role for `roleId` or if `roleId` is not an initialized, ExclusiveRole.",
        "params": {
          "newMember": "the new ExclusiveRole member.",
          "roleId": "the ExclusiveRole membership to modify."
        }
      },
      "setCurrentTime(uint256)": {
        "details": "Will revert if not running in test mode.",
        "params": {
          "time": "timestamp to set current Tesable time to."
        }
      }
    },
    "title": "Takes proposals for certain governance actions and allows UMA token holders to vote on them."
  },
  "userdoc": {
    "methods": {
      "addMember(uint256,address)": {
        "notice": "Adds `newMember` to the shared role, `roleId`."
      },
      "constructor": "Construct the Governor contract.",
      "executeProposal(uint256,uint256)": {
        "notice": "Executes a proposed governance action that has been approved by voters."
      },
      "getCurrentTime()": {
        "notice": "Gets the current time. Will return the last time set in `setCurrentTime` if running in test mode. Otherwise, it will return the block timestamp."
      },
      "getMember(uint256)": {
        "notice": "Gets the current holder of the exclusive role, `roleId`."
      },
      "getProposal(uint256)": {
        "notice": "Gets the proposal data for a particular id."
      },
      "holdsRole(uint256,address)": {
        "notice": "Whether `memberToCheck` is a member of roleId."
      },
      "numProposals()": {
        "notice": "Gets the total number of proposals (includes executed and non-executed)."
      },
      "propose((address,uint256,bytes)[])": {
        "notice": "Proposes a new governance action. Can only be called by the holder of the Proposer role."
      },
      "removeMember(uint256,address)": {
        "notice": "Removes `memberToRemove` from the shared role, `roleId`."
      },
      "renounceMembership(uint256)": {
        "notice": "Removes caller from the role, `roleId`."
      },
      "resetMember(uint256,address)": {
        "notice": "Changes the exclusive role holder of `roleId` to `newMember`."
      },
      "setCurrentTime(uint256)": {
        "notice": "Sets the current time."
      }
    }
  }
}